:100000000C9446000C9465000C9465000C946500FB
:100010000C9465000C9465000C9465000C946500CC
:100020000C9465000C9465000C9465000C946500BC
:100030000C9465000C94B0010C9465000C94650060
:100040000C9465000C9465000C9465000C9465009C
:100050000C9465000C9465000C9465000C9465008C
:100060000C9465000C9465000C9465000C9465007C
:100070000C9465000C9465000C9465000C9465006C
:100080000C9465000C9465000C94650011241FBE4F
:10009000CFEFD0E4DEBFCDBF11E0A0E0B1E0EEEBEA
:1000A000F9E000E00BBF02C007900D92AE31B1073E
:1000B000D9F721E0AEE1B1E001C01D92A832B2074C
:1000C000E1F70E9493040C94DD040C940000CF939C
:1000D000DF93CDB7DEB781E00E948E000000DF9194
:1000E000CF910895CF93DF93CDB7DEB784E690E04C
:1000F0000E94320188E30E948E0086E00E948E00FA
:100100008FE00E948E0081E00E948E008AE090E0E5
:100110000E9432010000DF91CF910895CF93DF93C9
:100120001F92CDB7DEB789838BE290E02BE230E0FF
:10013000F90120812F7BFC01208388E290E0298156
:10014000FC0120838BE290E02BE230E0F90120817A
:100150002068FC01208300008BE290E02BE230E07D
:10016000F90120812F77FC01208382E090E00E943A
:10017000320100000F90DF91CF910895CF93DF936C
:100180001F92CDB7DEB789838BE290E02BE230E09F
:10019000F90120812064FC01208388E290E029811C
:1001A000FC0120838BE290E02BE230E0F90120811A
:1001B0002068FC01208300008BE290E02BE230E01D
:1001C000F90120812F77FC01208381E090E00E94DB
:1001D000320100000F90DF91CF910895CF93DF930C
:1001E00000D000D0CDB7DEB78A837C836B830E94BA
:1001F00067008A81898311C0898191E0980F998372
:100200000E941B018B819C819C012F5F3F4F3C838F
:100210002B83FC0180810E94BE008B819C81FC01AC
:100220008081882349F700000F900F900F900F9066
:10023000DF91CF910895CF93DF931F92CDB7DEB7B3
:1002400089838981813128F4898181580E948E00B7
:1002500004C0898181550E948E0000000F90DF91BB
:10026000CF910895CF93DF9300D000D000D0CDB7C9
:10027000DEB79E838D831A82198213C01C821B8273
:1002800006C000008B819C8101969C838B838B81AF
:100290009C8187309340ACF389819A8101969A833F
:1002A000898329813A818D819E812817390734F30A
:1002B000000026960FB6F894DEBF0FBECDBFDF91CB
:1002C000CF910895CF93DF93CDB7DEB781E890E06B
:1002D0002BE0FC01208388E890E02DE730E0FC0172
:1002E000318320838FE690E022E0FC01208384E8C4
:1002F00090E0FC0111821082809100019091010137
:10030000A0910201B091030180931F0190932001FD
:10031000A0932101B09322018FE590E02FE530E01A
:10032000F90120812068FC0120830000DF91CF913A
:100330000895CF93DF93CDB7DEB781E890E0FC015D
:1003400010820000DF91CF910895CF93DF93CDB756
:10035000DEB781E080931E010000DF91CF91089508
:100360001F920F9200905F000F92112400905B008B
:100370000F922F933F934F935F936F937F938F933E
:100380009F93AF93BF93EF93FF93CF93DF93CDB73B
:10039000DEB780911F0190912001A0912101B091C1
:1003A00022010197A109B10980931F0190932001B7
:1003B000A0932101B093220180911F01909120010F
:1003C000A0912101B0912201892B8A2B8B2B91F4D2
:1003D0000E94A5018091000190910101A09102016C
:1003E000B091030180931F0190932001A0932101FC
:1003F000B09322010000DF91CF91FF91EF91BF9167
:10040000AF919F918F917F916F915F914F913F91AC
:100410002F910F9000925B000F9000925F000F9061
:100420001F901895CF93DF9300D000D0CDB7DEB7E3
:1004300069837A838B839C8389819A81AB81BC8118
:100440008093000190930101A0930201B0930301F6
:100450008091000190910101A0910201B0910301EE
:1004600080931F0190932001A0932101B09322015A
:1004700000000F900F900F900F90DF91CF91089593
:10048000CF93DF9300D01F92CDB7DEB789837B83F4
:100490006A8389818A3031F48A819B81BC018DE035
:1004A0000E94400280EC90E0FC018081882F90E067
:1004B00080729927892BB1F386EC90E02981FC01A9
:1004C000208380E090E00F900F900F90DF91CF910C
:1004D0000895CF93DF93CDB7DEB780912601909139
:1004E00027018230910509F491C08330910528F4E9
:1004F000009759F00197A1F012C28330910509F4D9
:100500000DC1049709F491C10AC21092240181E03F
:1005100090E0909327018093260110922501FFC15E
:100520001092250180912301882F90E081709927F6
:10053000892BC9F080912301882F90E08270992740
:10054000892B89F482E090E0909327018093260123
:1005500080912401893008F058C0809124018F5F78
:100560008093240152C080912301882F90E08170F4
:100570009927892BC1F480912301882F90E0827004
:100580009927892B81F083E090E090932701809355
:100590002601809124018823C1F18091240181509A
:1005A0008093240132C080912301882F90E08170D4
:1005B0009927892B89F080912301882F90E0827000
:1005C0009927892B49F084E090E09093270180934C
:1005D00026011092240119C080912301882F90E0F8
:1005E00081709927892B09F093C180912301882F6D
:1005F00090E082709927892B09F08AC181E090E010
:10060000909327018093260183C182C180912301A9
:10061000882F90E081709927892B51F180912301D7
:10062000882F90E082709927892B11F582E090E065
:100630009093270180932601809125018B3030F41F
:10064000809125018F5F8093250166C080912501EF
:100650008B3008F461C080912401893008F05CC0BF
:10066000809124018F5F809324011092250154C052
:1006700080912301882F90E081709927892BD1F4F4
:1006800080912301882F90E082709927892B91F027
:1006900083E090E09093270180932601109225013A
:1006A000809124018823C9F1809124018150809395
:1006B000240133C080912301882F90E08170992715
:1006C000892B89F080912301882F90E082709927EF
:1006D000892B49F084E090E09093270180932601D4
:1006E000109224011AC080912301882F90E081701C
:1006F0009927892B09F00EC180912301882F90E062
:1007000082709927892B09F005C181E090E09093D0
:10071000270180932601FEC00000FCC080912301C8
:10072000882F90E081709927892BD9F0809123013F
:10073000882F90E082709927892B99F410922501D7
:1007400082E090E09093270180932601809124011C
:10075000893008F069C0809124018F5F8093240163
:1007600063C080912301882F90E081709927892BA5
:1007700041F580912301882F90E082709927892B81
:1007800001F183E090E0909327018093260180910E
:1007900025018B3028F4809125018F5F80932501FE
:1007A000809125018B3008F43EC08091240188237C
:1007B000D1F1809124018150809324011092250170
:1007C00032C080912301882F90E081709927892B76
:1007D00089F080912301882F90E082709927892BDE
:1007E00049F084E090E090932701809326011092D5
:1007F00024011AC080912301882F90E081709927ED
:10080000892B09F089C080912301882F90E08270A4
:100810009927892B09F080C081E090E0909327010F
:100820008093260179C0000077C010922501809145
:100830002301882F90E081709927892B89F080917E
:100840002301882F90E082709927892B49F084E05A
:1008500090E090932701809326011092240157C0C5
:1008600080912301882F90E081709927892B79F45A
:1008700080912301882F90E082709927892B39F489
:1008800081E090E0909327018093260140C0809101
:100890002301882F90E081709927892BC1F08091E6
:1008A0002301882F90E082709927892B81F482E0C0
:1008B00090E0909327018093260180912401893054
:1008C00030F5809124018F5F8093240120C08091B6
:1008D0002301882F90E081709927892BF9F480916A
:1008E0002301882F90E082709927892BB9F082E04C
:1008F00090E0909327018093260180912401882322
:1009000069F08091240181508093240107C006C0C2
:10091000000005C0000003C0000001C0000000008E
:10092000DF91CF910895CF93DF93CDB7DEB781E20A
:1009300090E0FC0110821092230187E290E02FEFFB
:10094000FC01208388E290E0FC0110828AE290E0C2
:100950002FEFFC0120838BE290E0FC0110821092CB
:10096000240164E670E080E090E00E9412020E94A0
:1009700062010E9472000E94670062E171E081E002
:100980000E94EE00109227011092260182E290E070
:1009900020E230E0F9012081FC01208382E290E036
:1009A000FC018081837080932301000080911E01EF
:0E09B0008823E1F310921E01E9CFF894FFCFE7
:1009BE0001000000000000020000000040020000E4
:0E09CE00000048656C6C6F20576F726C6400FF
:00000001FF
