:100000000C9446000C9465000C9465000C946500FB
:100010000C9465000C9465000C9465000C946500CC
:100020000C9465000C9465000C9465000C946500BC
:100030000C9465000C94B0010C9465000C94650060
:100040000C9465000C9465000C9465000C9465009C
:100050000C9465000C9465000C9465000C9465008C
:100060000C9465000C9465000C9465000C9465007C
:100070000C9465000C9465000C9465000C9465006C
:100080000C9465000C9465000C94650011241FBE4F
:10009000CFEFD0E4DEBFCDBF11E0A0E0B1E0EEEAEB
:1000A000F9E000E00BBF02C007900D92A431B10748
:1000B000D9F721E0A4E1B1E001C01D92AE31B20751
:1000C000E1F70E9493040C94D5040C940000CF93A4
:1000D000DF93CDB7DEB781E00E948E000000DF9194
:1000E000CF910895CF93DF93CDB7DEB784E690E04C
:1000F0000E94320188E30E948E0086E00E948E00FA
:100100008FE00E948E0081E00E948E008AE090E0E5
:100110000E9432010000DF91CF910895CF93DF93C9
:100120001F92CDB7DEB789838BE290E02BE230E0FF
:10013000F90120812F7BFC01208388E290E0298156
:10014000FC0120838BE290E02BE230E0F90120817A
:100150002068FC01208300008BE290E02BE230E07D
:10016000F90120812F77FC01208382E090E00E943A
:10017000320100000F90DF91CF910895CF93DF936C
:100180001F92CDB7DEB789838BE290E02BE230E09F
:10019000F90120812064FC01208388E290E029811C
:1001A000FC0120838BE290E02BE230E0F90120811A
:1001B0002068FC01208300008BE290E02BE230E01D
:1001C000F90120812F77FC01208381E090E00E94DB
:1001D000320100000F90DF91CF910895CF93DF930C
:1001E00000D000D0CDB7DEB78A837C836B830E94BA
:1001F00067008A81898311C0898191E0980F998372
:100200000E941B018B819C819C012F5F3F4F3C838F
:100210002B83FC0180810E94BE008B819C81FC01AC
:100220008081882349F700000F900F900F900F9066
:10023000DF91CF910895CF93DF931F92CDB7DEB7B3
:1002400089838981813128F4898181580E948E00B7
:1002500004C0898181550E948E0000000F90DF91BB
:10026000CF910895CF93DF9300D000D000D0CDB7C9
:10027000DEB79E838D831A82198213C01C821B8273
:1002800006C000008B819C8101969C838B838B81AF
:100290009C8187309340ACF389819A8101969A833F
:1002A000898329813A818D819E812817390734F30A
:1002B000000026960FB6F894DEBF0FBECDBFDF91CB
:1002C000CF910895CF93DF93CDB7DEB781E890E06B
:1002D0002BE0FC01208388E890E02DE730E0FC0172
:1002E000318320838FE690E022E0FC01208384E8C4
:1002F00090E0FC0111821082809100019091010137
:10030000A0910201B0910301809315019093160111
:10031000A0931701B09318018FE590E02FE530E02E
:10032000F90120812068FC0120830000DF91CF913A
:100330000895CF93DF93CDB7DEB781E890E0FC015D
:1003400010820000DF91CF910895CF93DF93CDB756
:10035000DEB781E0809314010000DF91CF91089512
:100360001F920F9200905F000F92112400905B008B
:100370000F922F933F934F935F936F937F938F933E
:100380009F93AF93BF93EF93FF93CF93DF93CDB73B
:10039000DEB78091150190911601A0911701B091DF
:1003A00018010197A109B1098093150190931601D5
:1003B000A0931701B0931801809115019091160137
:1003C000A0911701B0911801892B8A2B8B2B91F4E6
:1003D0000E94A5018091000190910101A09102016C
:1003E000B09103018093150190931601A09317011A
:1003F000B09318010000DF91CF91FF91EF91BF9171
:10040000AF919F918F917F916F915F914F913F91AC
:100410002F910F9000925B000F9000925F000F9061
:100420001F901895CF93DF9300D000D0CDB7DEB7E3
:1004300069837A838B839C8389819A81AB81BC8118
:100440008093000190930101A0930201B0930301F6
:100450008091000190910101A0910201B0910301EE
:100460008093150190931601A0931701B093180182
:1004700000000F900F900F900F90DF91CF91089593
:10048000CF93DF9300D01F92CDB7DEB789837B83F4
:100490006A8389818A3031F48A819B81BC018DE035
:1004A0000E94400280EC90E0FC018081882F90E067
:1004B00080729927892BB1F386EC90E02981FC01A9
:1004C000208380E090E00F900F900F90DF91CF910C
:1004D0000895CF93DF93CDB7DEB780911C01909143
:1004E0001D018230910509F491C08330910528F4F3
:1004F000009759F00197A1F012C28330910509F4D9
:100500000DC1049709F491C10AC210921A0181E049
:1005100090E090931D0180931C0110921B01FFC17C
:1005200010921B0180911901882F90E0817099270A
:10053000892BC9F080911901882F90E0827099274A
:10054000892B89F482E090E090931D0180931C0137
:1005500080911A01893008F058C080911A018F5F8C
:1005600080931A0152C080911901882F90E0817008
:100570009927892BC1F480911901882F90E082700E
:100580009927892B81F083E090E090931D0180935F
:100590001C0180911A018823C1F180911A018150B8
:1005A00080931A0132C080911901882F90E08170E8
:1005B0009927892B89F080911901882F90E082700A
:1005C0009927892B49F084E090E090931D01809356
:1005D0001C0110921A0119C080911901882F90E016
:1005E00081709927892B09F093C180911901882F77
:1005F00090E082709927892B09F08AC181E090E010
:1006000090931D0180931C0183C182C180911901C7
:10061000882F90E081709927892B51F180911901E1
:10062000882F90E082709927892B11F582E090E065
:1006300090931D0180931C0180911B018B3030F43D
:1006400080911B018F5F80931B0166C080911B010D
:100650008B3008F461C080911A01893008F05CC0C9
:1006600080911A018F5F80931A0110921B0154C070
:1006700080911901882F90E081709927892BD1F4FE
:1006800080911901882F90E082709927892B91F031
:1006900083E090E090931D0180931C0110921B0158
:1006A00080911A018823C9F180911A0181508093A9
:1006B0001A0133C080911901882F90E08170992729
:1006C000892B89F080911901882F90E082709927F9
:1006D000892B49F084E090E090931D0180931C01E8
:1006E00010921A011AC080911901882F90E0817030
:1006F0009927892B09F00EC180911901882F90E06C
:1007000082709927892B09F005C181E090E09093D0
:100710001D0180931C01FEC00000FCC080911901E6
:10072000882F90E081709927892BD9F08091190149
:10073000882F90E082709927892B99F410921B01E1
:1007400082E090E090931D0180931C0180911A013A
:10075000893008F069C080911A018F5F80931A0177
:1007600063C080911901882F90E081709927892BAF
:1007700041F580911901882F90E082709927892B8B
:1007800001F183E090E090931D0180931C01809122
:100790001B018B3028F480911B018F5F80931B011C
:1007A00080911B018B3008F43EC080911A01882390
:1007B000D1F180911A01815080931A0110921B018E
:1007C00032C080911901882F90E081709927892B80
:1007D00089F080911901882F90E082709927892BE8
:1007E00049F084E090E090931D0180931C011092E9
:1007F0001A011AC080911901882F90E08170992701
:10080000892B09F089C080911901882F90E08270AE
:100810009927892B09F080C081E090E090931D0119
:1008200080931C0179C0000077C010921B01809159
:100830001901882F90E081709927892B89F0809188
:100840001901882F90E082709927892B49F084E064
:1008500090E090931D0180931C0110921A0157C0E3
:1008600080911901882F90E081709927892B79F464
:1008700080911901882F90E082709927892B39F493
:1008800081E090E090931D0180931C0140C0809115
:100890001901882F90E081709927892BC1F08091F0
:1008A0001901882F90E082709927892B81F482E0CA
:1008B00090E090931D0180931C0180911A01893072
:1008C00030F580911A018F5F80931A0120C08091CA
:1008D0001901882F90E081709927892BF9F4809174
:1008E0001901882F90E082709927892BB9F082E056
:1008F00090E090931D0180931C0180911A01882340
:1009000069F080911A01815080931A0107C006C0D6
:10091000000005C0000003C0000001C0000000008E
:10092000DF91CF910895CF93DF93CDB7DEB781E20A
:1009300090E0FC0110821092190187E290E02FEF05
:10094000FC0120838AE290E02FEFFC0120831092CB
:100950001A0164E670E080E090E00E9412020E94BA
:1009600062010E94720081E00E941B0182E191E01D
:100970000E94BE0010921D0110921C0182E290E0C4
:1009800020E230E0F9012081FC01208382E290E046
:10099000FC01808183708093190100008091140113
:0E09A0008823E1F310921401E9CFF894FFCF01
:1009AE0001000000000000020000000040020000F4
:0409BE000000300005
:00000001FF
